{
  "contractName": "Sample",
  "abi": [
    {
      "inputs": [
        {
          "name": "initial",
          "type": "uint256"
        }
      ],
      "payable": false,
      "stateMutability": "nonpayable",
      "type": "constructor"
    },
    {
      "constant": true,
      "inputs": [],
      "name": "getResult",
      "outputs": [
        {
          "name": "",
          "type": "uint256"
        }
      ],
      "payable": false,
      "stateMutability": "view",
      "type": "function"
    },
    {
      "constant": false,
      "inputs": [
        {
          "name": "num",
          "type": "uint256"
        }
      ],
      "name": "add",
      "outputs": [],
      "payable": false,
      "stateMutability": "nonpayable",
      "type": "function"
    },
    {
      "constant": false,
      "inputs": [
        {
          "name": "num",
          "type": "uint256"
        }
      ],
      "name": "subtract",
      "outputs": [],
      "payable": false,
      "stateMutability": "nonpayable",
      "type": "function"
    }
  ],
  "bytecode": "0x6060604052341561000f57600080fd5b60405160208061015183398101604052808051906020019091905050806000819055505061010f806100426000396000f3006060604052600436106053576000357c0100000000000000000000000000000000000000000000000000000000900463ffffffff1680631003e2d21460585780631dc05f17146078578063de292789146098575b600080fd5b3415606257600080fd5b6076600480803590602001909190505060be565b005b3415608257600080fd5b6096600480803590602001909190505060cc565b005b341560a257600080fd5b60a860da565b6040518082815260200191505060405180910390f35b806000540160008190555050565b806000540360008190555050565b600080549050905600a165627a7a723058203bf9e83459a0ca48ba8265b27f531033fde7a21e651edf406c3d58ce62d5f7890029",
  "source": "pragma solidity ^0.4.4;\n\ncontract Sample {\n\n\tuint result;\n\n  function Sample( uint initial) {\n    // constructor\n    result = initial;\n  }\n\n  function getResult() constant returns (uint){\n  \treturn result;\n  }\n\n  function add(uint num){\n  \tresult = result + num;\n  }\n\n  function subtract(uint num){\n  \tresult = result - num;\n  }\n\n}\n\n",
  "sourcePath": "/home/dushyant/Desktop/Blockchain/Dapp/contracts/Sample.sol",
  "compiler": {
    "name": "solc",
    "version": "0.4.19+commit.c4cbbb05.Emscripten.clang"
  },
  "schemaVersion": "1.0.1",
  "updatedAt": "2018-02-12T12:48:57.168Z"
}